S016000050726F6A656B7453656D696E61722E7372656360
S11300000C9434000C9446000C9446000C94460066
S11300100C9446000C9446000C9446000C94460044
S11300200C9446000C9446000C9446000C94460034
S11300300C9446000C9446000C9446000C94460024
S11300400C9446000C9446000C9446000C94460014
S11300500C9446000C9446000C9446000C94460004
S11300600C9446000C94460011241FBECFEFD8E038
S1130070DEBFCDBF21E0A0E0B1E001C01D92A13000
S1130080B207E1F70E947F000C94A1000C940000D9
S1130090E0ECF0E0908195FFFDCF8093C6000895D9
S11300A0E0ECF0E080818823ECF78091C6000895AD
S11300B082E084B9E0E8F0E0808182688083E1E84E
S11300C0F0E08081896180838FE99FE090938700CD
S11300D0809386008CE697E0909389008093880053
S11300E008959093C5008093C40088E18093C10073
S11300F082E28093C00086E08093C200089580E18C
S113010090E00E9471000E945800C0ECD0E008E822
S113011010E088818823ECF70E945000809300014E
S11301200E9448008091000190E0880F991F880F79
S1130130991F880F991F8256984FF80191838083E5
S1090140E8CFF894FFCFA4
S9030000FC
